:100000000C9434000C943E000C943E000C943E0082
:100010000C943E000C943E000C943E000C943E0068
:100020000C943E000C943E000C943E000C943E0058
:100030000C943E000C943E000C943E000C943E0048
:100040000C943E000C943E000C943E000C943E0038
:100050000C943E000C943E000C943E000C943E0028
:100060000C943E000C943E0011241FBECFEFD8E04C
:10007000DEBFCDBF0E9440000C9490000C940000A5
:100080008AB1877C8AB98BB188638BB984B1806C63
:1000900084B94B9919C04C9B17C04D9B15C05E9AF3
:1000A0002FEF83EC99E0215080409040E1F700C0B1
:1000B00000005E982FEF83EC99E021508040904043
:1000C000E1F700C00000E5CF4B9B10C04C990EC07B
:1000D0004D9B0CC05F9A2FEF83EC99E0215080403C
:1000E0009040E1F700C000005F98E4CF4B9B14C044
:1000F0004C9B12C04D9910C08BB1806C8BB92FEF07
:1001000083EC99E0215080409040E1F700C000006E
:100110008BB18F738BB9CECF8BB18F738BB9B9CFB6
:04012000F894FFCF81
:00000001FF
